:1009EC000A128A11F22E0313831281309F002D25D7
:1009FC00031383121F15031383121F19012D0313E5
:100A0C0083121E0803138312B2000313831289305E
:100A1C009F002D25031383121F15031383121F1917
:100A2C00132D031383121E0803138312BD0003132B
:100A3C0083123208803C0318282D031383123D08BF
:100A4C00AD00080003138312FF30AD0008003230F4
:100A5C00BC00BC0B2F2D0800031383122D080313AD
:100A6C0083122C0203190800031383122C0803139E
:100A7C0083122D02031C4C2D031383122C0A031911
:100A8C0008006A2503138312AC0A080003138312AF
:100A9C002C0803190800562503138312AC03080015
:100AAC0003138312803086007E25403086007E251D
:100ABC00203086007E25103086007E25031383129D
:100ACC0006080F39860008000313831210308600C5
:100ADC007E25203086007E25403086007E258030A5
:100AEC0086007E250313831206080F398600080042
:100AFC006430BE00BE0B802D0800031383168717CD
:100B0C00071303138316193099000313831624302B
:100B1C009800031383129030980003138312BA01C8
:100B2C00031383120800031383120C1E9B2D031353
:100B3C0083129900031383120800031383123A08DB
:100B4C000319AE2D031383123B0803138312AD005C
:100B5C0003138312981CB42D181218160313831246
:100B6C008C1E0800031383121A0803138312B90096
:100B7C00B91BE52D3908013A0319F62D3908023A4B
:100B8C000319F92D3908033A0319FE2D3908043AD3
:100B9C000319032E3908053A0319082E3908063AA9
:100BAC0003190D2E3908073A0319F62D3908083A9E
:100BBC000319122E3908093A0319172E08000313CA
:100BCC00831239083F39B900B90DB90D390803132F
:100BDC008312BB000130BA0003138312AD0008006E
:100BEC00003099250800031383122D08992508005D
:100BFC00031383122F0899250800031383122E0860
:100C0C009925080003138312310899250800031352
:100C1C008312300899250800031383123208992592
:100C2C000800031383122C08992508001F2653264D
:100C3C0008001930A2000530A3002208AE002308DA
:100C4C00AF000330A400F530A5002408B00025083F
:100C5C00B1000800E92638303B260C303B26013029
:100C6C003B26E92606303B26080003138312880036
:100C7C0003138312091009118914E4268910E42640
:100C8C00080003138312880003138312091409113B
:100C9C008914E4268910E426080080303B262B308A
:100CAC0047262E08A9262E3047262F08303E4726E9
:100CBC00DF30472643304726203047263008A20035
:100CCC003108A300DB2668304726503047266130B8
:100CDC004726C0303B263208BA264C3047267530A2
:100CEC00472678304726203047262C0891262B089B
:100CFC00643A031D882E3130472630304726303079
:100D0C0047268A2E2B08A9262E3047263030472618
:100D1C00253047260800AA002A08FF3A031D992E01
:100D2C006430AB000800A60103302A02031CA62E77
:100D3C000330AA02A60A2608643C0319A62E9A2E92
:100D4C002608AB000800AA00A6010A302A02031CE0
:100D5C00B32E0A30AA02A60AAB2E2608303E47262E
:100D6C002A08303E47260800AA00A60164302A0251
:100D7C00031CC42E6430AA02A60ABC2EA7010A309A
:100D8C002A02031CCD2E0A30AA02A70AC52E303027
:100D9C004726303047262608303E47262708303E67
:100DAC0047262A08303E4726080031304726303087
:100DBC004726313047263330472608003230A00012
:100DCC00A00BE62E08001E30A000FF30A100A10BE6
:100DDC00ED2EA00BEB2E08000313831604309F009E
:100DEC00031383160F30860003138316033085001C
:100DFC0003138316880103138316890103138316C7
:100E0C009830870003138312AC01AD0103138312D6
:100E1C001930AE000530AF00031383120330B0005D
:100E2C00F530B100F7279C270A128A1183250A1284
:100E3C008A11A3250A128A11F9240A128A11A325F0
:100E4C008030A6272B30B127031383122E08BC2722
:100E5C002E30B127031383122F08303EB127DF3019
:100E6C00B1274330B1272030B1273130B127303092
:100E7C00B1273130B1273330B1276830B12750302A
:100E8C00B1276130B127C030A62703138312320873
:100E9C00B500FA303502031C552FFF30B50035086C
:100EAC00CF274C30B1277530B1277830B12720309F
:100EBC00B127031383122C087F27031383123808DE
:100ECC00643A031D702F3130B1273030B1273030E8
:100EDC00B127742F031383123808BC272E30B12787
:100EEC003030B1272530B1270A128A113225F2276A
:100EFC001D2F03138312B5003508FF3A031D892FEC
:100F0C006430B8000800B601B7016430B30035088E
:100F1C00B7070318B60AB30B8D2F3608B800653027
:100F2C003802031C08006430B80008003830A627CB
:100F3C000C30A6270130A627F7270630A627080075
:100F4C000313831288000313831209108914F227E8
:100F5C008910F227080003138312880003138312ED
:100F6C0009148914F2278910F2270800031383123D
:100F7C00B500B6010A303502031CC82F0A30B50281
:100F8C00B60AC02F3608303EB1273508303EB1279F
:100F9C00080003138312B5003030B1273030B1276D
:100FAC00B60164303502031CDF2F6430B502B60A7B
:100FBC00D72F3608303EB127B7010A303502031C53
:100FCC00EB2F0A30B502B70AE32F3708303EB127B2
:100FDC003508303EB12708003230B300B30BF42F84
:100FEC000800C830B300C830B400B40BFB2FB30BEF
:040FFC00F92F0800C1
:02400E00723FFF
:00000001FF
