:100C0C00072E0313831681130313831601308500FB
:100C1C00031383161F30860003138316803087005E
:100C2C0003138316880103138312850103138312A4
:100C3C0086010313831287010313831288010313A4
:100C4C00831286160617861703138312871603134F
:100C5C0083121930A000A101A201A801FF30A90044
:100C6C00AA00AB01AC014226BB278826BB274B262A
:100C7C00BB277026BB273A2E031383168E309F009A
:100C8C000313831281309F0008001E30031383125C
:100C9C00A500A50B4F2E031383121F151F19542EDD
:100CAC00031383121E0803138312A6000313831667
:100CBC001E0803138312A70003138312A60C03133D
:100CCC008312A70C03138312270803138312A100AA
:100CDC00A201080003138312200821020319832E9A
:100CEC000318792E7E2E0313831208108814080023
:100CFC0003138312081488100800031383120810BE
:100D0C00881008003127A4002408FF3A031D9E2EEA
:100D1C0003138312AB080319080003138312AC0AE4
:100D2C002C08143C031C9B2E0800AB01AC010800E2
:100D3C0003138312AB08031D080003138312AC0AC0
:100D4C002C08143C031CAB2E0800AC0103138312BB
:100D5C000130AB00031383122408031383122808F9
:100D6C000319C22E013A0319D02E0313831228083B
:100D7C00023A0319E32E0800031383122408413AA4
:100D8C00031D0800031383120130A800FF30A900D3
:100D9C00AA000800031383122408A3000A302302BC
:100DAC000318080003138312240803138312A900E9
:100DBC00031383120230A8000800031383122408C3
:100DCC00233A0319F82E031383122408A3000A30C4
:100DDC00230203180800031383122408031383123D
:100DEC00AA000800031383122908FF3A03192A2FBB
:100DFC00031383122A08FF3A03192A2F03138312B1
:100E0C002908AD00AE01AD0DAE0DAD0DAE0DAD0DA5
:100E1C00AE0D031383122908AF00B001AF0DB00D56
:100E2C00031383122D08B100031383122F08B1078B
:100E3C0003138312310803138312A00003138312CC
:100E4C002A0803138312A00703138312A801FF308F
:100E5C00A900AA000800031383128612061786172E
:100E6C000313831287166D27FF3A031D6B2F031391
:100E7C008312861606138617031383128716792797
:100E8C00FF3A031D6B2F0313831286160617861366
:100E9C000313831287168527FF3A031D6B2F031349
:100EAC00831286160617861703138312871291274F
:100EBC00FF3A031D6B2F0313831286160617861732
:100ECC00031383128716FF300800FF3A0800031340
:100EDC008312861C992F061D9F2F861DA52F061E7B
:100EEC00AF2FFF30080003138312861C9B2F061DA7
:100EFC00A12F861DA72F061E972FFF300800031366
:100F0C008312861C9D2F061DA32F861DA92F061E3E
:100F1C00AD2FFF30080003138312861CAB2FFF305C
:100F2C0008000030080001300800023008000330CF
:100F3C0008000430080005300800063008000730AF
:100F4C000800083008000930080041300800233040
:100F5C0008002A30080003138316091089100313A4
:100F6C00831209148914D0270800D027FF30D72703
:100F7C000714F927D027FF30D7278714F927D02754
:100F8C00A430D7270715F927D0279230D7278715F4
:100F9C00F927080003138312071087100711871114
:100FAC000800A3000313831208080339A5000313D8
:100FBC00831223083F39A400A40DA40D031383123C
:100FCC002408A50403138312250888000313831235
:100FDC0003138312231B0914231F0910A31B891449
:100FEC00A31F89100800031383125030B200B20BF8
:040FFC00FD2F0800BD
:02400E00713F00
:00000001FF
